:100000000C948C000C94A9000C94A9000C94A900E9
:100010000C94A9000C94A9000C94A9000C94A900BC
:100020000C94A9000C94A9000C94A9000C94A900AC
:100030000C94A9000C94A9000C94A9000C94A9009C
:100040000C94A9000C94A9000C9456080C94A900D7
:100050000C941E080C94A9000C94A9000C94A900FF
:100060000C9434060C94A900007CFE8A92FE7C005D
:10007000008080FEFE888000008C9E92A2E6C40074
:10008000006CFE9292C644000020FEFE2428300040
:100090000072FA8A8ACE4E000064F69292FE7C00CC
:1000A00000061EFAE2060600006CFE9292FE6C004C
:1000B000007CFE9292DE4C00000C1EB2B2060400E0
:1000C0001C3E7CF87C3E1C00000004027EE0C00068
:1000D00010387CFE38383800383838FE7C3810004C
:1000E0000000006E6E000000000000666600000068
:1000F000004444380609060000105438EE38541005
:100100000081C3BD81423C000000060C1830600035
:10011000000000000000000011241FBECFEFD8E057
:10012000DEBFCDBF11E0A0E0B1E0EAE2F2E102C043
:1001300005900D92AC31B107D9F722E0ACE1B1E006
:1001400001C01D92AB3AB207E1F70E9444010C9442
:1001500013090C940000CF93DF9300D01F92CDB70A
:10016000DEB70E94C903882361F080E091E00E941D
:100170001008BE016F5F7F4FCE0102960E94E60419
:100180000EC088E091E00E941008AE014F5F5F4F03
:10019000BE016E5F7F4FCE0103960E9467040F90F1
:1001A0000F900F90DF91CF9108951F93CF93DF931E
:1001B000C82FD62F142F0E946A0760E875E280E0EE
:1001C00090E00E9483070E941B050E949A03412F22
:1001D0006D2F8C2F0E94C604DF91CF911F910C943C
:1001E000AB00CF93DF93CDB7DEB728970FB6F89467
:1001F000DEBF0FBECDBF48E050E0BC01CE0101968E
:100200000E940A0929813A814B815C816D817E813E
:100210008F81988528960FB6F894DEBF0FBECDBFAC
:10022000DF91CF9108950F931F93CF93DF93EC014C
:100230006130710569F44330510551F448816A8198
:1002400081E00E94C60481E08E8788EF90E008C0BC
:100250008E858823A1F0232B91F41E8680E091E007
:100260000E94F10089019A01AB01BC0180E00E946B
:10027000FE02DF91CF911F910F910C943A03DF9111
:10028000CF911F910F910895CF93DF931F92CDB718
:10029000DEB710920E0048E264E085E00E94D500CF
:1002A0000E94DB0280E091E00E94F10089019A0146
:1002B000AB01BC0180E00E94FE020E943A036AE0AA
:1002C000E62EF12C0E94CC03FC0184819581B701BC
:1002D0000E94B6085C01CB01B7010E94B6086C0110
:1002E0008280938009E010E020E030E0A501BC01AD
:1002F000CF010E941301C401B7010E94B6084B014F
:1003000023E0880F991F2A95E1F788599F4F0E9493
:10031000F10089019A01AB01BC0181E00E94FE025B
:10032000C401B7010E94B60833E0880F991F3A95BF
:10033000E1F788599F4F0E94F10089019A01AB01B2
:10034000BC0182E00E94FE0288EE90E00E94F10073
:1003500089019A01AB01BC0183E00E94FE02C50144
:1003600043E0880F991F4A95E1F788599F4F0E94F3
:10037000F10089019A01AB01BC0184E00E94FE02F8
:10038000C60153E0880F991F5A95E1F788599F4F8E
:100390000E94F10089019A01AB01BC0185E00E9435
:1003A000FE020E943A032FEF89E698E12150804037
:1003B0009040E1F700C00000CE0101960E94B30713
:1003C000813009F07FCFCE0101960E94100886E0AF
:1003D00091E00E9410080E94D207813009F072CF8C
:1003E0000E94CD0780E191E00E94100886E091E034
:1003F0000E94100867CFFC018FB7F8947183608367
:100400005383428317821682158214828FBF089508
:10041000FC019FB7F8944481558141155105C9F0FD
:1004200026813781A081B181A20FB31F8C912F5FEC
:100430003F4F37832683628173812617370720F069
:10044000261B370B3783268341505109558344833C
:1004500001C080E09FBF0895FC01362F2FB7F894AC
:1004600044815581628173814617570798F48681CC
:100470009781840F951F0E94A208A081B181A80FC7
:10048000B91F3C93848195810196958384832FBF06
:100490008FEF08952FBF80E008958EBD0DB407FE45
:1004A000FDCF089584B18C6284B92A9A24982C9A3D
:1004B0008CB580658CBD0895EF92FF920F931F93CA
:1004C000CF93DF93863048F5142F062F2A98C82F34
:1004D000D0E07E0185E0E816F10451F080E00E9452
:1004E0004D0280E00E944D028FEFE81AF80AF2CF29
:1004F000802F0E944D02812F0E944D0200E010E0EB
:100500000C171D074CF480E00E944D0280E00E9411
:100510004D020F5F1F4FF4CF2A9ADF91CF911F91A9
:100520000F91FF90EF900895863028F4683018F40A
:100530006F5F0C945C020895462F863018F469E0D2
:100540000C945C020895863038F4462F603108F030
:100550004FE06AE00C945C020895863038F4462F30
:10056000683008F047E06BE00C945C020895863038
:1005700030F4462F611141E06CE00C945C02089568
:10058000863030F4462F611141E06FE00C945C023C
:10059000089520E030E048E0849FC00111248E5E81
:1005A0009D4FFC01E20FF31F10822F5F3F4F283059
:1005B0003105B9F70895CF930E945202C0E08C2F05
:1005C0000E94C90261E08C2F0E94B70260E08C2F6C
:1005D0000E94C00260E08C2F0E949C0261E08C2F80
:1005E0000E94A30267E08C2F0E94AD028C2F0E9414
:1005F000C902CF5FC63019F7CF910895AF92BF926D
:10060000DF92EF92FF920F931F93CF93DF93D22F3E
:10061000C32FB42FA52FD62E972F27E0A22EB12CB3
:1006200048E0849F90011124F901EE5EFD4F7F01A7
:1006300097012A0D3B1DF901008398014D2F5C2F76
:100640006B2F7A2F8D2D08E00E94EE088901D42FA0
:10065000C52FB62FA72FD82EF1E0AF1AB10840F75B
:10066000DF91CF911F910F91FF90EF90DF90BF909E
:10067000AF900895EF92FF920F931F93CF93DF9364
:10068000C0E0D0E000E010E0CE0123E0880F991F29
:100690002A95E1F79C012E5E3D4F7901F701E00FAD
:1006A000F11F4081602F8C2F0E9494020F5F1F4F1B
:1006B0000830110599F72196C630D10519F7DF9159
:1006C000CF911F910F91FF90EF9008956AE00E94E3
:1006D000960820E1829F900D1124892F0895982F6C
:1006E00092959F708F702AE0929F800D112408953B
:1006F000CF93C82F88E60E9432058C2F0E944C05AC
:100700000E943C0561E088E60E942505CF910C948B
:100710007705CF93DF93C82FD62F88E60E94320546
:100720008D2F0E944C058C2F0E944C05DF91CF919C
:100730000C943C05CF93DF9381E10E947803D82F7E
:1007400082E10E947803C82F61E18EEE0E94890346
:1007500062E18DED0E94890381E10E9478038E3E63
:1007600091F482E10E9478038D3D69F481E08093E9
:100770001D0161E18D2F0E94890362E18C2FDF91C1
:10078000CF910C94890381E080931C01DF91CF917C
:10079000089580911C010895EF92FF920F931F938B
:1007A000CF93DF93CDB7DEB729970FB6F894DEBFAE
:1007B0000FBECDBF88E60E94320580E00E944C0546
:1007C0000E943C0567E088E60E9425058E010F5FC8
:1007D0001F4F7E0188E0E80EF11C0E947705F801AA
:1007E00081938F01EE15FF05C1F70E943C058981B9
:1007F0008F770E946F0390E09093430280934202B0
:100800008A810E946F0390E0909345028093440296
:100810008B810E946F03082F10E010934702009312
:1008200046028D810E946F0390E09093490280936D
:100830004802FE808F2D8F710E946F0390E090938D
:100840004B0280934A028F81F7FE06C00E946F031D
:1008500090E08053984F05C00E946F0390E0845948
:10086000984F90934D0280934C028C810E946F03AD
:1008700090E090934F0280934E020115110529F4E8
:10088000109252021092510207C00C30110544F42C
:10089000109352020093510281E08093500208C0ED
:1008A0000C50110910935202009351021092500201
:1008B00082E492E029960FB6F894DEBF0FBECDBF5A
:1008C000DF91CF911F910F91FF90EF9008958F923C
:1008D0009F92AF92BF92CF92DF92EF92FF920F93CF
:1008E0001F93CF93DF93CDB7DEB729970FB6F89458
:1008F000DEBF0FBECDBF7C016B015A0188E60E94AE
:10090000320580E00E944C050E943C0567E088E6C5
:100910000E9425058E010F5F1F4F4E0188E0880E53
:10092000911C0E947705F80181938F01E815F90564
:10093000C1F70E943C05A114B10429F089810E94ED
:100940006F03F5018083C114D10429F08A810E94CC
:100950006F03F6018083E114F10429F08B810E947A
:100960006F03F701808329960FB6F894DEBF0FBEA0
:10097000CDBFDF91CF911F910F91FF90EF90DF904E
:10098000CF90BF90AF909F908F9008951F93CF937B
:10099000DF93C82FD62F142F88E60E94320580E0FF
:1009A0000E944C05812F0E9466030E944C058D2FEA
:1009B0000E9466030E944C058C2F0E9466030E94D1
:1009C0004C05DF91CF911F910C943C05FF920F9342
:1009D0001F93CF93DF93FC011082FB0110822091C3
:1009E0001D01211122C0EB018C0188E60E94320515
:1009F00081E10E944C050E943C0562E088E60E946D
:100A000025050E947105882381F00E947705F82E44
:100A10000E947705F801F08282958695869583700D
:100A200099E1899F802D11248883DF91CF911F91B7
:100A30000F91FF90089510922301109222011092BD
:100A4000200110921F010C948805462F613208F096
:100A500040E265E572E00E949B05109223018093BD
:100A60002201089591E090931E018093210110923C
:100A7000200110921F01089521E040911F0165E7B8
:100A800072E0809121010E94CC0510922001109209
:100A90001F0110921E010895CF93DF931F92CDB7CF
:100AA000DEB7898380911E01882391F080911F0118
:100AB000803298F480912001E82FF0E0EB58FD4F50
:100AC000998190838F5F8093200180931F0105C0DF
:100AD00061E0CE0101960E940B060F90DF91CF914D
:100AE00008958091220190912301891B089590918E
:100AF000230180912201981748F4E92FF0E0EB5A86
:100B0000FD4F80819F5F90932301089580E00895B9
:100B100010928F01449A459AE9EBF0E080818E7F34
:100B2000808380818D7F808388E48093B80085E412
:100B30008093BC000895413268F590918F01911126
:100B4000FCCF91E090938F019FEF9093240110923E
:100B50006901940F90936801880F816080938E01E2
:100B600085EE8093BC0080918F018130E1F380910C
:100B70006901841710F440916901AAE6B1E0962F4B
:100B8000FB018E2F891B841718F48D918193F9CF67
:100B9000842F089580E008954132B0F590918F013F
:100BA0009111FCCF32E030938F013FEF309324015D
:100BB0001092690140936801562FAAE6B1E0FB014B
:100BC0003E2F351B341718F431913D93F9CF482F40
:100BD00050E0440F551F40938E0185EE8093BC007A
:100BE000222321F080918F018230D1F38091240162
:100BF0008F3F79F080912401803241F0809124016F
:100C0000803331F094E005C091E003C092E001C070
:100C100093E0892F0895613298F420918F01243058
:100C200089F460934601282FA8E4B1E0FC018E2FDF
:100C3000821B861718F481918D93F9CF80E0089577
:100C400081E0089582E0089585ED8093BC00809155
:100C5000BC0084FDFCCF10928F01089585EC809339
:100C6000BC0010928F0108951F920F920FB60F9241
:100C700011242F933F934F935F936F937F938F93A1
:100C80009F93AF93BF93EF93FF938091B900887FB9
:100C9000803609F495C068F5883209F45BC090F499
:100CA000803109F454C038F4882309F4EEC0883048
:100CB00009F44DC0EEC0883109F44CC0803209F40B
:100CC0005EC0E7C0803409F469C048F4803309F499
:100CD00056C0883309F0DDC080932401A1C080355F
:100CE00009F450C0883509F45EC0883409F0D1C0D9
:100CF000CEC0883909F4BFC0A8F4883709F460C0B1
:100D000038F4883609F45CC0803709F459C0C1C092
:100D1000883809F4B0C0803909F458C0803809F027
:100D2000B8C054C0803B09F47EC038F4803A09F45E
:100D30005FC0883A09F477C0ACC0803C09F49FC01A
:100D4000883C09F49CC0883B09F482C0A2C0809111
:100D50008E0111C09091690180916801981708F087
:100D600096C0E091690181E08E0F80936901F0E007
:100D7000E659FE4F80818093BB0085EC7DC0809357
:100D8000240185C0E091690181E08E0F80936901A3
:100D90008091BB00F0E0E659FE4F8083909169019D
:100DA0008091680165C0E091690181E08E0F8093B8
:100DB00069018091BB00F0E0E659FE4F808367C077
:100DC00083E080938F0110922501D7CF8091250178
:100DD000803208F050C0E091250181E08E0F8093B1
:100DE00025018091BB00F0E0EA5DFE4F8083C5CF16
:100DF00080912501803230F4E0912501F0E0EA5D38
:100E0000FE4F10820E9424066091250170E0E0915F
:100E10008A01F0918B0186E291E0099510922501FB
:100E20000E942E0636C084E080938F011092470105
:100E300010924601E0918C01F0918D01099580910D
:100E40004601811105C081E080934601109248015E
:100E5000E091470181E08E0F80934701F0E0E85B6D
:100E6000FE4F80818093BB009091470180914601A5
:100E7000981708F482CF85E88093BC000AC085ECFF
:100E80008093BC0010928F0104C0109224010E9434
:100E90002406FF91EF91BF91AF919F918F917F9128
:100EA0006F915F914F913F912F910F900FBE0F90D7
:100EB0001F90189540E450E062ED71E088E992E0FF
:100EC0000E94FB0140E450E062E971E081EA92E0B7
:100ED0000C94FB010E945A0710929101109290010C
:100EE00088ED8093C10087E68093C4001092C5000E
:100EF00081E0809397021092A0021092AA021092B1
:100F0000A902789408950F931F938B019C01DC0133
:100F1000CB0180589B47A14EBF4FBC01CD0143E0A0
:100F2000660F771F881F991F4A95D1F7A90198016D
:100F3000E4E0220F331F441F551FEA95D1F70E94AA
:100F4000CA08215031092093C4003093C5001F9175
:100F50000F910895909197029923E1F38093C60031
:100F6000109297020895CF93DF9320919A023091C7
:100F70009B02232B71F020919C0230919D02232B28
:100F800041F0EC0188E992E00E940802888381E048
:100F900001C080E0DF91CF91089510929D021092E0
:100FA0009C02089581E020919C0230919D02232BA8
:100FB00009F080E00895FF920F931F93CF93DF9382
:100FC0002091A5023091A602260F371F4091A3025F
:100FD0005091A40224173507E0F461157105C9F09A
:100FE000EC01FC01F1908F01C60FD71F0C171D07F4
:100FF00041F0F80161918F0181EA92E00E942C0298
:10100000F5CF81E08093A0028F2D0E94AA0781E096
:1010100001C080E0DF91CF911F910F91FF90089563
:10102000009751F0FC0101900020E9F73197BF01D2
:10103000681B790B0C94DB0780E008951F920F92D8
:101040000FB60F9211242F933F934F935F936F939B
:101050007F938F939F93AF93BF93EF93FF93809171
:10106000A002882379F08091A5029091A602892B95
:1010700039F081EA92E00E9408028093C60005C020
:101080001092A00281E080939702FF91EF91BF91AF
:10109000AF919F918F917F916F915F914F913F9110
:1010A0002F910F900FBE0F901F9018951F920F92C7
:1010B0000FB60F9211242F933F934F935F936F932B
:1010C0007F938F939F93AF93BF93EF93FF93809101
:1010D000C6002091900130919101232B31F0E091D5
:1010E0009001F0919101099510C0682F88E992E074
:1010F0000E942C02811109C08091A9029091AA023C
:1011000001969093AA028093A902FF91EF91BF915B
:10111000AF919F918F917F916F915F914F913F918F
:101120002F910F900FBE0F901F901895991B79E08B
:1011300004C0991F961708F0961B881F7A95C9F767
:1011400080950895AA1BBB1B51E107C0AA1FBB1FB6
:10115000A617B70710F0A61BB70B881F991F5A9543
:10116000A9F780959095BC01CD01089597FB072EB6
:1011700016F4009407D077FD09D00E94A20807FC5E
:1011800005D03EF4909581959F4F08957095619597
:101190007F4F0895A1E21A2EAA1BBB1BFD010DC0B3
:1011A000AA1FBB1FEE1FFF1FA217B307E407F50717
:1011B00020F0A21BB30BE40BF50B661F771F881FF3
:1011C000991F1A9469F760957095809590959B0189
:1011D000AC01BD01CF01089597FB10F816940008EB
:1011E0000F93083098F00850232F342F452F562F97
:1011F000672F782F892F902DF4CF05949795879599
:101200007795679557954795379527950A95AAF746
:101210000F910895FB01DC0102C005900D92415031
:0A1220005040D8F70895F894FFCF6E
:10122A004453333233310A004453313330370A00DE
:0C123A0066696E69736865642E2E2E00D4
:00000001FF
